{
  "contractName": "UserIdentity",
  "abi": [
    {
      "inputs": [],
      "stateMutability": "nonpayable",
      "type": "constructor"
    },
    {
      "inputs": [
        {
          "internalType": "address",
          "name": "_address",
          "type": "address"
        }
      ],
      "name": "verifyIsBroker",
      "outputs": [
        {
          "internalType": "bool",
          "name": "",
          "type": "bool"
        }
      ],
      "stateMutability": "view",
      "type": "function",
      "constant": true
    },
    {
      "inputs": [
        {
          "internalType": "address",
          "name": "_address",
          "type": "address"
        }
      ],
      "name": "verifyIsBorrower",
      "outputs": [
        {
          "internalType": "bool",
          "name": "",
          "type": "bool"
        }
      ],
      "stateMutability": "view",
      "type": "function",
      "constant": true
    },
    {
      "inputs": [
        {
          "internalType": "string",
          "name": "_socialSecurityId",
          "type": "string"
        },
        {
          "internalType": "address",
          "name": "_address",
          "type": "address"
        },
        {
          "internalType": "string",
          "name": "_name",
          "type": "string"
        }
      ],
      "name": "addBroker",
      "outputs": [],
      "stateMutability": "nonpayable",
      "type": "function"
    },
    {
      "inputs": [
        {
          "internalType": "string",
          "name": "_socialSecurityId",
          "type": "string"
        },
        {
          "internalType": "address",
          "name": "_address",
          "type": "address"
        },
        {
          "internalType": "string",
          "name": "_name",
          "type": "string"
        }
      ],
      "name": "addBorrower",
      "outputs": [],
      "stateMutability": "nonpayable",
      "type": "function"
    },
    {
      "inputs": [],
      "name": "getAllBrokers",
      "outputs": [
        {
          "components": [
            {
              "internalType": "uint256",
              "name": "id",
              "type": "uint256"
            },
            {
              "internalType": "string",
              "name": "socialSecurityId",
              "type": "string"
            },
            {
              "internalType": "address",
              "name": "userAddress",
              "type": "address"
            },
            {
              "internalType": "string",
              "name": "name",
              "type": "string"
            },
            {
              "internalType": "enum UserIdentity.Role",
              "name": "role",
              "type": "uint8"
            }
          ],
          "internalType": "struct UserIdentity.User[]",
          "name": "",
          "type": "tuple[]"
        }
      ],
      "stateMutability": "view",
      "type": "function",
      "constant": true
    },
    {
      "inputs": [],
      "name": "getAllBorrowers",
      "outputs": [
        {
          "components": [
            {
              "internalType": "uint256",
              "name": "id",
              "type": "uint256"
            },
            {
              "internalType": "string",
              "name": "socialSecurityId",
              "type": "string"
            },
            {
              "internalType": "address",
              "name": "userAddress",
              "type": "address"
            },
            {
              "internalType": "string",
              "name": "name",
              "type": "string"
            },
            {
              "internalType": "enum UserIdentity.Role",
              "name": "role",
              "type": "uint8"
            }
          ],
          "internalType": "struct UserIdentity.User[]",
          "name": "",
          "type": "tuple[]"
        }
      ],
      "stateMutability": "view",
      "type": "function",
      "constant": true
    }
  ],
  "bytecode": "0x60806040526000600155600060025534801561001a57600080fd5b50336000806101000a81548173ffffffffffffffffffffffffffffffffffffffff021916908373ffffffffffffffffffffffffffffffffffffffff16021790555061178c8061006a6000396000f3fe608060405234801561001057600080fd5b50600436106100625760003560e01c8063053ff76c1461006757806332abcdbe146100835780633314168c146100a1578063a3bee99a146100d1578063e701c350146100ed578063ee6fc3b41461011d575b600080fd5b610081600480360381019061007c919061114e565b61013b565b005b61008b6103e6565b604051610098919061136b565b60405180910390f35b6100bb60048036038101906100b69190611125565b61078d565b6040516100c8919061138d565b60405180910390f35b6100eb60048036038101906100e6919061114e565b610862565b005b61010760048036038101906101029190611125565b610b0d565b604051610114919061138d565b60405180910390f35b610125610be1565b604051610132919061136b565b60405180910390f35b3373ffffffffffffffffffffffffffffffffffffffff1660008054906101000a900473ffffffffffffffffffffffffffffffffffffffff1673ffffffffffffffffffffffffffffffffffffffff16146101c9576040517f08c379a00000000000000000000000000000000000000000000000000000000081526004016101c0906113a8565b60405180910390fd5b60016002546101d89190611484565b60028190555060006040518060a0016040528060025481526020018581526020018473ffffffffffffffffffffffffffffffffffffffff168152602001838152602001600180811115610254577f4e487b7100000000000000000000000000000000000000000000000000000000600052602160045260246000fd5b815250905080600360008573ffffffffffffffffffffffffffffffffffffffff1673ffffffffffffffffffffffffffffffffffffffff1681526020019081526020016000206000820151816000015560208201518160010190805190602001906102bf929190610f88565b5060408201518160020160006101000a81548173ffffffffffffffffffffffffffffffffffffffff021916908373ffffffffffffffffffffffffffffffffffffffff1602179055506060820151816003019080519060200190610323929190610f88565b5060808201518160040160006101000a81548160ff02191690836001811115610375577f4e487b7100000000000000000000000000000000000000000000000000000000600052602160045260246000fd5b02179055509050506006839080600181540180825580915050600190039060005260206000200160009091909190916101000a81548173ffffffffffffffffffffffffffffffffffffffff021916908373ffffffffffffffffffffffffffffffffffffffff16021790555050505050565b6060600060025467ffffffffffffffff81111561042c577f4e487b7100000000000000000000000000000000000000000000000000000000600052604160045260246000fd5b60405190808252806020026020018201604052801561046557816020015b61045261100e565b81526020019060019003908161044a5790505b50905060005b6002548110156107855760036000600683815481106104b3577f4e487b7100000000000000000000000000000000000000000000000000000000600052603260045260246000fd5b9060005260206000200160009054906101000a900473ffffffffffffffffffffffffffffffffffffffff1673ffffffffffffffffffffffffffffffffffffffff1673ffffffffffffffffffffffffffffffffffffffff1681526020019081526020016000206040518060a00160405290816000820154815260200160018201805461053d90611589565b80601f016020809104026020016040519081016040528092919081815260200182805461056990611589565b80156105b65780601f1061058b576101008083540402835291602001916105b6565b820191906000526020600020905b81548152906001019060200180831161059957829003601f168201915b505050505081526020016002820160009054906101000a900473ffffffffffffffffffffffffffffffffffffffff1673ffffffffffffffffffffffffffffffffffffffff1673ffffffffffffffffffffffffffffffffffffffff16815260200160038201805461062590611589565b80601f016020809104026020016040519081016040528092919081815260200182805461065190611589565b801561069e5780601f106106735761010080835404028352916020019161069e565b820191906000526020600020905b81548152906001019060200180831161068157829003601f168201915b505050505081526020016004820160009054906101000a900460ff1660018111156106f2577f4e487b7100000000000000000000000000000000000000000000000000000000600052602160045260246000fd5b600181111561072a577f4e487b7100000000000000000000000000000000000000000000000000000000600052602160045260246000fd5b81525050828281518110610767577f4e487b7100000000000000000000000000000000000000000000000000000000600052603260045260246000fd5b6020026020010181905250808061077d906115ec565b91505061046b565b508091505090565b60008060009050600060018111156107ce577f4e487b7100000000000000000000000000000000000000000000000000000000600052602160045260246000fd5b600460008573ffffffffffffffffffffffffffffffffffffffff1673ffffffffffffffffffffffffffffffffffffffff16815260200190815260200160002060040160009054906101000a900460ff166001811115610856577f4e487b7100000000000000000000000000000000000000000000000000000000600052602160045260246000fd5b14905080915050919050565b3373ffffffffffffffffffffffffffffffffffffffff1660008054906101000a900473ffffffffffffffffffffffffffffffffffffffff1673ffffffffffffffffffffffffffffffffffffffff16146108f0576040517f08c379a00000000000000000000000000000000000000000000000000000000081526004016108e7906113a8565b60405180910390fd5b600180546108fe9190611484565b60018190555060006040518060a0016040528060015481526020018581526020018473ffffffffffffffffffffffffffffffffffffffff1681526020018381526020016000600181111561097b577f4e487b7100000000000000000000000000000000000000000000000000000000600052602160045260246000fd5b815250905080600460008573ffffffffffffffffffffffffffffffffffffffff1673ffffffffffffffffffffffffffffffffffffffff1681526020019081526020016000206000820151816000015560208201518160010190805190602001906109e6929190610f88565b5060408201518160020160006101000a81548173ffffffffffffffffffffffffffffffffffffffff021916908373ffffffffffffffffffffffffffffffffffffffff1602179055506060820151816003019080519060200190610a4a929190610f88565b5060808201518160040160006101000a81548160ff02191690836001811115610a9c577f4e487b7100000000000000000000000000000000000000000000000000000000600052602160045260246000fd5b02179055509050506005839080600181540180825580915050600190039060005260206000200160009091909190916101000a81548173ffffffffffffffffffffffffffffffffffffffff021916908373ffffffffffffffffffffffffffffffffffffffff16021790555050505050565b60008060009050600180811115610b4d577f4e487b7100000000000000000000000000000000000000000000000000000000600052602160045260246000fd5b600360008573ffffffffffffffffffffffffffffffffffffffff1673ffffffffffffffffffffffffffffffffffffffff16815260200190815260200160002060040160009054906101000a900460ff166001811115610bd5577f4e487b7100000000000000000000000000000000000000000000000000000000600052602160045260246000fd5b14905080915050919050565b6060600060015467ffffffffffffffff811115610c27577f4e487b7100000000000000000000000000000000000000000000000000000000600052604160045260246000fd5b604051908082528060200260200182016040528015610c6057816020015b610c4d61100e565b815260200190600190039081610c455790505b50905060005b600154811015610f80576004600060058381548110610cae577f4e487b7100000000000000000000000000000000000000000000000000000000600052603260045260246000fd5b9060005260206000200160009054906101000a900473ffffffffffffffffffffffffffffffffffffffff1673ffffffffffffffffffffffffffffffffffffffff1673ffffffffffffffffffffffffffffffffffffffff1681526020019081526020016000206040518060a001604052908160008201548152602001600182018054610d3890611589565b80601f0160208091040260200160405190810160405280929190818152602001828054610d6490611589565b8015610db15780601f10610d8657610100808354040283529160200191610db1565b820191906000526020600020905b815481529060010190602001808311610d9457829003601f168201915b505050505081526020016002820160009054906101000a900473ffffffffffffffffffffffffffffffffffffffff1673ffffffffffffffffffffffffffffffffffffffff1673ffffffffffffffffffffffffffffffffffffffff168152602001600382018054610e2090611589565b80601f0160208091040260200160405190810160405280929190818152602001828054610e4c90611589565b8015610e995780601f10610e6e57610100808354040283529160200191610e99565b820191906000526020600020905b815481529060010190602001808311610e7c57829003601f168201915b505050505081526020016004820160009054906101000a900460ff166001811115610eed577f4e487b7100000000000000000000000000000000000000000000000000000000600052602160045260246000fd5b6001811115610f25577f4e487b7100000000000000000000000000000000000000000000000000000000600052602160045260246000fd5b81525050828281518110610f62577f4e487b7100000000000000000000000000000000000000000000000000000000600052603260045260246000fd5b60200260200101819052508080610f78906115ec565b915050610c66565b508091505090565b828054610f9490611589565b90600052602060002090601f016020900481019282610fb65760008555610ffd565b82601f10610fcf57805160ff1916838001178555610ffd565b82800160010185558215610ffd579182015b82811115610ffc578251825591602001919060010190610fe1565b5b50905061100a919061108b565b5090565b6040518060a001604052806000815260200160608152602001600073ffffffffffffffffffffffffffffffffffffffff1681526020016060815260200160006001811115611085577f4e487b7100000000000000000000000000000000000000000000000000000000600052602160045260246000fd5b81525090565b5b808211156110a457600081600090555060010161108c565b5090565b60006110bb6110b6846113ed565b6113c8565b9050828152602081018484840111156110d357600080fd5b6110de848285611547565b509392505050565b6000813590506110f58161173f565b92915050565b600082601f83011261110c57600080fd5b813561111c8482602086016110a8565b91505092915050565b60006020828403121561113757600080fd5b6000611145848285016110e6565b91505092915050565b60008060006060848603121561116357600080fd5b600084013567ffffffffffffffff81111561117d57600080fd5b611189868287016110fb565b935050602061119a868287016110e6565b925050604084013567ffffffffffffffff8111156111b757600080fd5b6111c3868287016110fb565b9150509250925092565b60006111d983836112df565b905092915050565b6111ea816114da565b82525050565b60006111fb8261142e565b6112058185611451565b9350836020820285016112178561141e565b8060005b85811015611253578484038952815161123485826111cd565b945061123f83611444565b925060208a0199505060018101905061121b565b50829750879550505050505092915050565b61126e816114ec565b82525050565b61127d81611535565b82525050565b600061128e82611439565b6112988185611462565b93506112a8818560208601611556565b6112b1816116f1565b840191505092915050565b60006112c9600a83611473565b91506112d482611702565b602082019050919050565b600060a0830160008301516112f7600086018261135c565b506020830151848203602086015261130f8282611283565b915050604083015161132460408601826111e1565b506060830151848203606086015261133c8282611283565b91505060808301516113516080860182611274565b508091505092915050565b6113658161152b565b82525050565b6000602082019050818103600083015261138581846111f0565b905092915050565b60006020820190506113a26000830184611265565b92915050565b600060208201905081810360008301526113c1816112bc565b9050919050565b60006113d26113e3565b90506113de82826115bb565b919050565b6000604051905090565b600067ffffffffffffffff821115611408576114076116c2565b5b611411826116f1565b9050602081019050919050565b6000819050602082019050919050565b600081519050919050565b600081519050919050565b6000602082019050919050565b600082825260208201905092915050565b600082825260208201905092915050565b600082825260208201905092915050565b600061148f8261152b565b915061149a8361152b565b9250827fffffffffffffffffffffffffffffffffffffffffffffffffffffffffffffffff038211156114cf576114ce611635565b5b828201905092915050565b60006114e58261150b565b9050919050565b60008115159050919050565b60008190506115068261172b565b919050565b600073ffffffffffffffffffffffffffffffffffffffff82169050919050565b6000819050919050565b6000611540826114f8565b9050919050565b82818337600083830152505050565b60005b83811015611574578082015181840152602081019050611559565b83811115611583576000848401525b50505050565b600060028204905060018216806115a157607f821691505b602082108114156115b5576115b4611693565b5b50919050565b6115c4826116f1565b810181811067ffffffffffffffff821117156115e3576115e26116c2565b5b80604052505050565b60006115f78261152b565b91507fffffffffffffffffffffffffffffffffffffffffffffffffffffffffffffffff82141561162a57611629611635565b5b600182019050919050565b7f4e487b7100000000000000000000000000000000000000000000000000000000600052601160045260246000fd5b7f4e487b7100000000000000000000000000000000000000000000000000000000600052602160045260246000fd5b7f4e487b7100000000000000000000000000000000000000000000000000000000600052602260045260246000fd5b7f4e487b7100000000000000000000000000000000000000000000000000000000600052604160045260246000fd5b6000601f19601f8301169050919050565b7f41646d696e204f6e6c7900000000000000000000000000000000000000000000600082015250565b6002811061173c5761173b611664565b5b50565b611748816114da565b811461175357600080fd5b5056fea2646970667358221220808864f88a0721e80d80ebba23523d90afe7bafb4a56dfcf8e0580aa739418fc64736f6c63430008010033",
  "immutableReferences": {},
  "source": "// SPDX-License-Identifier: GPL-3.0\npragma solidity >=0.7.0 <0.9.0;\n\ncontract UserIdentity{\n    \n    enum Role { BROKER, BORROWER }\n    \n    struct User{\n        uint id; \n        string socialSecurityId; // each property has an unique social security id\n        address userAddress;\n        string name;\n        Role role;\n    }\n    \n    address admin;\n    \n    uint brokersCount = 0;\n    uint borrowersCount = 0;\n    \n    mapping(address => User) private borrowers;\n    mapping(address => User) private brokers;\n    \n    address[] private brokersAddresses;\n    address[] private borrowersAddresses;\n    \n    constructor()\n    {\n        admin = msg.sender;\n    }\n    \n    modifier isAdmin()\n    {\n        require(admin == msg.sender, 'Admin Only');\n        _;\n    }\n    \n    function verifyIsBroker(address _address) public view returns(bool)\n    {\n        bool isValid = false;\n        isValid = brokers[_address].role == Role.BROKER;\n        return isValid;\n    }\n    \n    function verifyIsBorrower(address _address) public view returns(bool)\n    {\n        bool isValid = false;\n        isValid = borrowers[_address].role == Role.BORROWER;\n        return isValid;\n    }\n\n    function addBroker(string memory _socialSecurityId, address _address, string memory _name) \n        public isAdmin()\n    {\n        brokersCount = brokersCount + 1;\n        User memory user = User(brokersCount, _socialSecurityId, _address, _name, Role.BROKER );\n        brokers[_address] = user;\n        brokersAddresses.push(_address);\n    }\n    \n    function addBorrower(string memory _socialSecurityId, address _address, string memory _name) \n        public isAdmin()\n    {\n        borrowersCount = borrowersCount + 1;\n        User memory user = User(borrowersCount, _socialSecurityId, _address, _name,  Role.BORROWER );\n        borrowers[_address] = user;\n        borrowersAddresses.push(_address);\n    }\n    \n    function getAllBrokers() public view returns (User[] memory){\n        User[] memory ret = new User[](brokersCount);\n        for (uint i = 0; i < brokersCount; i++) {\n            ret[i] = brokers[brokersAddresses[i]];\n        }\n        return ret;\n    }\n    \n    function getAllBorrowers() public view returns (User[] memory){\n        User[] memory ret = new User[](borrowersCount);\n        for (uint i = 0; i < borrowersCount; i++) {\n            ret[i] = borrowers[borrowersAddresses[i]];\n        }\n        return ret;\n    }\n}",
  "sourcePath": "/Users/lahirurangana/NTU/Projects/Blockchain/GMC/microfinance/blockchain/contracts/UserIdentity.sol",
  "compiler": {
    "name": "solc",
    "version": "0.8.1+commit.df193b15.Emscripten.clang"
  },
  "schemaVersion": "3.4.3",
  "updatedAt": "2022-01-27T18:27:28.266Z",
  "networkType": "ethereum",
  "devdoc": {
    "kind": "dev",
    "methods": {},
    "version": 1
  },
  "userdoc": {
    "kind": "user",
    "methods": {},
    "version": 1
  }
}